:100000000C944A000C9492070C94B4070C94690069
:100010000C9469000C9469000C9469000C946900BC
:100020000C9469000C9469000C9469000C946900AC
:100030000C9469000C9469000C9469000C9469009C
:100040000C9469000C9469000C94D7070C94690017
:100050000C9469000C9469000C9469000C9469007C
:100060000C9469000C949C010C9469000C94690038
:100070000C9469000C9469000C9469000C9469005C
:100080000C9469000C9469000C9469000C9469004C
:100090000C94690011241FBECFEFD0E1DEBFCDBFAD
:1000A00013E0A0E0B1E0E2E5F9E200E00BBF02C03E
:1000B00007900D92A43BB107D9F714E0A4EBB3E08D
:1000C00001C01D92AC35B107E1F70E94610F0C949D
:1000D000A7140C940000CF93DF9300D0CDB7DEB708
:1000E00000D000D000D0EDB7FEB73196ADB7BEB7A7
:1000F00011966C93718320E031E0338322839583E2
:10010000848369837A830E94D111EDB7FEB7369656
:100110000FB6F894FEBF0FBEEDBF6981862F7A81BE
:10012000972F0F900F90DF91CF91089520E030E04E
:1001300008C00F920F900F920F900F920F902F5FA9
:100140003F4F28173907A9F70895A29A84E690E04F
:100150000E949600A298089594B39C7F94BB882334
:1001600011F4605803C0813011F4605468B90E94E2
:10017000A5000895A09AA19888B90E94A5000895A5
:100180000F931F93CF93DF938C01C0E0D0E005C0A5
:1001900088EE93E00E9496002196C017D107C1F720
:1001A000DF91CF911F910F9108958DB383608DBB27
:1001B000E9E6F0E08081807F808380818A608083AF
:1001C000789408958AB18C7F8AB98BB183608BB99A
:1001D0000895279A2F9A089594B39C7F94BB88B969
:1001E0000E94A500089583B3876083BB87B18FEF1A
:1001F00087B988E290E00E94C00088E388B90E9435
:10020000A50088E290E00E9496008CE088B988E220
:1002100090E00E9496000E94A50081E088B982E0EB
:1002200090E00E94C0000E94A50086E088B90E946C
:10023000A50081E00E94EC0082E390E00E94C000F3
:100240000895EF92FF920F931F93CF93DF9300D007
:10025000CDB7DEB7062F49835A830E94AC0049818F
:100260005A81E42EF52E10E00E191F0905C00E94D8
:10027000BA000894E11CF11CF7018081882331F059
:1002800098012E0D3F1D203131058CF30F900F90FA
:10029000DF91CF911F910F91FF90EF9008950F93F1
:1002A0001F93CF93DF93182F062FEA0160E043E0FE
:1002B00051E00E942101812F602FAE010E94210197
:1002C000DF91CF911F910F910895EF92FF921F93AD
:1002D000CF93DF930F92CDB7DEB7182F7A0181E06D
:1002E00069830E94EC00812F6981A7010E9421018E
:1002F0000F90DF91CF911F91FF90EF900895CF93D2
:10030000DF930F92CDB7DEB749830E94AC004981DD
:10031000842F0E94BA000F90DF91CF91089580E45E
:1003200080937C0080EF80BB8FE080937E0088EC20
:1003300080937A00789408951F920F920FB60F92CF
:1003400011248F939F9380917800909179009093DE
:10035000C6038093C50388EC80937A009F918F91A8
:100360000F900FBE0F901F9018951092C800E9ECE7
:10037000F0E088E18083808180688083789486E0E3
:100380008093CA001092CD0087E68093CC00089538
:100390009091C80095FFFCCF8093CE000895CF9335
:1003A000C82F8A3019F48DE00E94C8018C2F0E945A
:1003B000C8018C2F90E0CF9108958091C80087FFED
:1003C000FCCF8091CE0008950E94DD0190E0089559
:1003D000CF93DF93EC0102C00E94C801899188236A
:1003E000D9F7DF91CF9108959091D80091609093C3
:1003F000D800833089F0843028F4813051F0823085
:10040000D1F411C0853061F0853040F0863099F428
:1004100009C01092E20009C086E005C088E003C070
:100420008EE001C082E18093E2008CE08093E300E3
:1004300087E38093E40080E0982F9295907F9093DB
:10044000ED001092EF001092EE001092F300109267
:10045000F2001092F1001092F0001092F70010924A
:10046000F6001092F5001092F4001092FA0010922B
:10047000FA001092FA001092FA001092FA0010920C
:10048000FA001092FA001092FA008F5F8F30A1F6F6
:100490001092DB001092DF001092DE001092E1005B
:1004A0001092E0008091D80082608093D800809103
:1004B000D90082FFFCCF08959091D800916090936D
:1004C000D8008330C1F0843028F4813051F082307C
:1004D00039F50EC08530C9F0853078F0863001F5E9
:1004E00016C01092E20084E08093E30083E116C01E
:1004F0001092E2000FC082E00BC082E08093E20025
:100500008EE08093E3008BE409C086E001C088E0C0
:100510008093E2008CE08093E30087E38093E40023
:1005200080E0982F9295907F9093ED001092EF00CD
:100530001092EE001092F3001092F2001092F1006F
:100540001092F0001092F7001092F6001092F50051
:100550001092F4001092FA001092FA001092FA0031
:100560001092FA001092FA001092FA001092FA001B
:100570001092FA008F5F8F30A1F61092DB0010927C
:10058000DF001092DE001092E1001092E00080E2A5
:100590008093D8008091D80082608093D8008091A9
:1005A000D90082FFFCCF08950F931F93FB010081B8
:1005B0001181228133818295807F8093ED0010929A
:1005C000EE001092EF0085818823A1F4D901C801C3
:1005D00053E0B695A795979587955A95D1F780934F
:1005E000F3000295000F007E0093F2008091EF006F
:1005F0008F7E29C0D901C80155E1B695A795979579
:1006000087955A95D1F78093F300D901C8016DE021
:10061000B695A795979587956A95D1F78093F2003F
:10062000D901C80175E0B695A795979587957A95F4
:10063000D1F78093F100000F000F000F0093F0003E
:100640008091EF0080618093EF008091EF009681B0
:10065000892B8093EF008091F0004470482B4093E9
:10066000F0008091F0008D7F8093F0008091F00089
:100670008E7F8093F00080E009C0DF01A80FB11DDC
:1006800017969C9117979093FA008F5F9681891720
:10069000A0F38091EF0080648093EF008091EE00E2
:1006A00086FFFCCF8091EE008F7B8093EE0081E08F
:1006B0001F910F910895CF92DF92EF92FF920F93C7
:1006C0001F93FB018295807F8093ED008091EE0067
:1006D00085FFFCCF8091EF0084FD1BC015828091C7
:1006E000F30090E0A0E0B0E0BA2FA92F982F882760
:1006F0004091F20050E060E070E0842B952BA62B37
:10070000B72B35E0B695A795979587953A95D1F78C
:1007100035C081E085838091F30090E0A0E0B0E0F7
:10072000B82FAA2799278827C090F2004091F1009E
:100730000091F000DD24EE24FF247601DD24CC249A
:100740008C299D29AE29BF2910E020E030E0802BC4
:10075000912BA22BB32B50E060E070E0762F652F39
:10076000542F4427842B952BA62BB72B689412F873
:10077000B695A795979587951694D1F78083918321
:10078000A283B3838091F000847084838091EF0012
:100790008F70868340E009C08091FA002E0F3F1FC2
:1007A000D90117968C9317974F5F242F30E08091D3
:1007B000EF0090E08F709070281739076CF310925B
:1007C000EE008091EF0080688093EF008091EE0052
:1007D0008F7D8093EE0081E01F910F91FF90EF904D
:1007E000DF90CF900895AF92CF92DF92EF92FF9279
:1007F0000F938295807F8093ED001092EE00DB01D5
:10080000CA01222329F5F3E0B695A7959795879518
:10081000FA95D1F78093F3004295440F407E4093C0
:10082000F200D701C60123E0B695A7959795879565
:100830002A95D1F78093F700C294CC0C30EEC322F6
:10084000C092F6001092F4008091EF008F7E4DC0B0
:10085000E5E1B695A79597958795EA95D1F78093A9
:10086000F300DB01CA01FDE0B695A7959795879542
:10087000FA95D1F78093F200DB01CA0125E0B69525
:10088000A795979587952A95D1F78093F100440F06
:10089000440F440F4093F000D701C60135E1B695EF
:1008A000A795979587953A95D1F78093F700D7014B
:1008B000C6014DE0B695A795979587954A95D1F7CE
:1008C0008093F600D701C601E5E0B695A795979508
:1008D0008795EA95D1F78093F500CC0CCC0CCC0C25
:1008E000C092F4008091EF0080618093EF008091CE
:1008F000EF000F70082B0093EF009091F4008A2D09
:100900008770892B8093F4008091EF00806880933A
:10091000EF000F91FF90EF90DF90CF90AF90089590
:10092000AF92CF92DF92EF92FF920F93382F829582
:10093000807F8093ED001092EE008091EF0021FF08
:1009400002C0806201C08F7D8093EF00DB01CA018D
:1009500020FD25C023E0B695A795979587952A9504
:10096000D1F78093F3004295440F407E4093F2000C
:10097000D701C60143E0B695A795979587954A9507
:10098000D1F78093F700C294CC0C50EEC522C092F0
:10099000F6001092F4008091EF008F7E4DC0E5E1EB
:1009A000B695A79597958795EA95D1F78093F3002B
:1009B000DB01CA01FDE0B695A79597958795FA9555
:1009C000D1F78093F200DB01CA0125E0B695A79527
:1009D000979587952A95D1F78093F100440F440F9E
:1009E000440F4093F000D701C60145E1B695A795A5
:1009F000979587954A95D1F78093F700D701C6015F
:100A0000EDE0B695A79597958795EA95D1F78093F0
:100A1000F600D701C601F5E0B695A795979587959D
:100A2000FA95D1F78093F500CC0CCC0CCC0CC0928D
:100A3000F4008091EF0080618093EF008091EF00DF
:100A40000F70082B0093EF009091F4008A2D8770AF
:100A5000892B8093F4008091DB00806A8093DB0017
:100A6000383050F481E090E002C0880F991F3A9529
:100A7000E2F78093DE000DC0232F30E02850304095
:100A800081E090E002C0880F991F2A95E2F78093D9
:100A9000DF008091EF0080688093EF0078940F91E1
:100AA000FF90EF90DF90CF90AF900895CF92DF92BC
:100AB000EF92FF920F931F93FC018091EF0084FD52
:100AC0001BC015828091F30090E0A0E0B0E0BA2F47
:100AD000A92F982F88274091F20050E060E070E045
:100AE000842B952BA62BB72B35E0B695A79597951C
:100AF00087953A95D1F735C081E085838091F300E1
:100B000090E0A0E0B0E0B82FAA2799278827C090EE
:100B1000F2004091F1000091F000DD24EE24FF246A
:100B20007601DD24CC248C299D29AE29BF2910E033
:100B300020E030E0802B912BA22BB32B50E060E023
:100B400070E0762F652F542F4427842B952BA62BEE
:100B5000B72B689412F8B695A79597958795169434
:100B6000D1F780839183A283B3838091EF008F704C
:100B7000868340E009C08091FA002E0F3F1FD90103
:100B800017968C9317974F5F242F30E08091EF00DA
:100B900090E08F709070281739076CF31092EE0078
:100BA0008091EF0080688093EF008091EE008F7D50
:100BB0008093EE0081E01F910F91FF90EF90DF9006
:100BC000CF9008958DB18B628DB9A1E9B0E01C92F0
:100BD000E0E9F0E010828081886880838C918360F6
:100BE0008C938C9180618C9380818260808385E37B
:100BF0009CE0909397008093960086E490E0909319
:100C00009D0080939C0008959C018091C303909166
:100C1000C4038217930709F441C08FEF273E3807BA
:100C2000ECF12A313105D4F54091C3035091C4034E
:100C3000429FC001439F900D529F900D112497FF3A
:100C400002C0709871983093C4032093C3031216A6
:100C500013063CF4709A71988091960090919700D9
:100C60000CC0709821153105C1F0719A80919600E1
:100C700090919700309521953F4F69E170E00E9477
:100C80004611269FC001279F900D369F900D11247D
:100C900090939900809398000895719808958F9289
:100CA0009F92AF92BF92CF92DF92EF92FF922091EC
:100CB000C1033091C2032817390709F44AC097FDD0
:100CC00048C0853B91050CF044C09093C2038093CB
:100CD000C1039C01B901882777FD8095982F0E9458
:100CE0002C0C6B017C012DEC3CEC4CEC5FE30E9486
:100CF0001E0A20E030E044E353E40E941F0B4B0146
:100D00005C01C701B6012AE939E949E15EE30E94C5
:100D10001E0A20E030E044E353E40E941F0B2AE95E
:100D200039E949E15FE30E94B2099B01AC01C501C9
:100D3000B4010E94B20920E030E04AEF52E40E9480
:100D40001E0A0E943108DC01CB0190939D00809324
:100D50009C00FF90EF90DF90CF90BF90AF909F905E
:100D60008F9008950F931F93CF93DF9326E330E086
:100D7000AC01429FC001439F900D529F900D1124E2
:100D80000E94461180E090E00E94F40C8B01D82F65
:100D9000C92F9E01862F912FA32FB22FBC01CD0109
:100DA00020E030E040EA50E40E94FB0B87FD8AC05F
:100DB0009E01802F912FA32FB22FBC01CD0120E0E7
:100DC00030E040E251E40E94FB0B87FD7EC09E01B3
:100DD000802F912FA32FB22FBC01CD0120E030E056
:100DE00040E751E40E94FB0B87FD72C09E01802FFB
:100DF000912FA32FB22FBC01CD0120E030E040EABB
:100E000051E40E94FB0B87FD66C09E01802F912F4D
:100E1000A32FB22FBC01CD0120E030E048EC51E41B
:100E20000E94FB0B87FD5AC09E01802F912FA32F9C
:100E3000B22FBC01CD0120E030E040EF51E40E9430
:100E4000FB0B87FD4EC09E01802F912FA32FB22F49
:100E5000BC01CD0120E030E04CE052E40E94FB0BED
:100E600087FD42C09E01802F912FA32FB22FBC017E
:100E7000CD0120E030E040E252E40E94FB0B87FD10
:100E800036C09E01802F912FA32FB22FBC01CD0120
:100E900020E030E044E352E40E94FB0B87FD2AC0CF
:100EA0009E01802F912FA32FB22FBC01CD0120E0F6
:100EB00030E048E452E40E94FB0B87FF1EC084E14F
:100EC00090E01DC087EE9FEF1AC08CEE9FEF17C019
:100ED00081EF9FEF14C086EF9FEF11C08BEF9FEF64
:100EE0000EC080E090E00BC085E090E008C08AE092
:100EF00090E005C08FE090E002C089E190E0DF91D2
:100F0000CF911F910F91089524EB30E0AC01429FE7
:100F1000C001439F900D529F900D11240E944611D5
:100F2000CB0108951F920F920FB60F9211248F9349
:100F30009F938091BE03882381F08091BA03882318
:100F400061F08091B6039091B703009719F4109265
:100F5000BA0303C081E08093B8039F918F910F90F3
:100F60000FBE0F901F9018951F920F920FB60F9201
:100F700011248F939F938091BE03882389F08091E1
:100F8000BA03813069F08091B6039091B70300975E
:100F900021F481E08093BA0303C081E08093B80319
:100FA0009F918F910F900FBE0F901F9018951F92D9
:100FB0000F920FB60F920BB60F9211242F933F93FF
:100FC0004F935F936F937F938F939F93AF93BF9351
:100FD000EF93FF9387EC93E00E9456058091CE0338
:100FE000813019F0843051F509C08091CF038130F0
:100FF00029F58091D0038093BE0320C08091CF0358
:10100000813019F08230D1F405C08091D0038093F3
:10101000BC0314C08091D0038C3218F08FEF9FEF87
:1010200004C0843138F481E090E09093B50380935C
:10103000B40304C01092B5031092B403FF91EF9172
:10104000BF91AF919F918F917F916F915F914F91E0
:101050003F912F910F900BBE0F900FBE0F901F90DE
:101060001895CF92DF92EF92FF920F931F936B012F
:101070007C0120E030E040E05FE40E94CA0B87FD85
:1010800011C0C701B60120E030E040E05FE40E94FB
:10109000E6090E94A30C8B019C01005010402040E7
:1010A000304806C0C701B6010E94A30C8B019C0109
:1010B000B801C9011F910F91FF90EF90DF90CF9081
:1010C0000895A0E0B0E0E7E6F8E00C945C11EC01D4
:1010D0004B01FA018881823008F43EC1DB019C910A
:1010E000923008F436C1843059F4943009F034C198
:1010F000998111968C911197981709F027C12CC1ED
:10110000943009F426C19230A9F4823009F024C148
:10111000CE0128E0DC010D90CD01DA010D92AD0188
:101120002150C1F7D40111968C911197998189238F
:10113000818311C1823009F40CC1AA80BB80DB011C
:1011400012964D915C911397CC80DD80EE80FF80EC
:1011500014960D911D912D913C911797C501841BFB
:10116000950BDC0197FF04C0AA27BB27A81BB90B6E
:10117000A032B1050CF067C01816190684F52801D5
:1011800039010A2E04C076946794579447940A94C0
:10119000D2F741E050E060E070E004C0440F551F1A
:1011A000661F771FAA95D2F74150504060407040AB
:1011B000402351236223732381E090E0A0E0B0E05C
:1011C000411551056105710519F480E090E0DC01DD
:1011D0008C019D0104291529262937293FC0009734
:1011E000E9F1AA0EBB1E260137010A2E04C076942F
:1011F0006794579447940A94D2F741E050E060E036
:1012000070E004C0440F551F661F771FAA95D2F7E0
:1012100041505040604070404C215D216E217F2143
:1012200081E090E0A0E0B0E0411551056105710555
:1012300019F480E090E0DC016C017D01C428D52820
:10124000E628F7280BC04A155B0524F400E010E0FF
:10125000980104C05A01CC24DD2476018981D4018F
:1012600011969C911197891709F445C0882329F09C
:101270000C191D092E093F0908C0D701C601801BA2
:10128000910BA20BB30B8C019D0137FD04C01182A1
:10129000B382A2820BC081E08183B382A2823095A7
:1012A0002095109501951F4F2F4F3F4F04831583B5
:1012B000268337830DC0880F991FAA1FBB1F848305
:1012C0009583A683B78382819381019793838283D9
:1012D00084819581A681B781AC01BD014150504008
:1012E000604070404F3F2FEF52072FEF62072FE310
:1012F000720708F30BC08183B382A2820C0D1D1DFF
:101300002E1D3F1D048315832683378383E080834E
:10131000448155816681778177FF1DC0DB01CA0159
:1013200081709070A070B0707695679557954795CD
:10133000842B952BA62BB72B84839583A683B78309
:101340008281938101969383828305C0CBEAD2E0A8
:1013500003C0E40101C0EF01CE01CDB7DEB7E0E18B
:101360000C947811A0E2B0E0E8EBF9E00C946A117B
:10137000DC01CB018D839E83AF83B88729833A83B9
:101380004B835C83CE010596BE01675E7F4F0E9452
:101390009B0ECE010196BE016F5E7F4F0E949B0E99
:1013A000CE014996BE016F5E7F4FAE01475F5F4F32
:1013B0000E9461080E94C40D462F572F682F792F75
:1013C000CB01BA01A096E2E00C948611A0E2B0E055
:1013D000ECEEF9E00C946A11DC01CB018D839E8365
:1013E000AF83B88729833A834B835C83CE0105960C
:1013F000BE01675E7F4F0E949B0ECE010196BE012B
:101400006F5E7F4F0E949B0E8A8991E089278A8BAD
:10141000CE014996BE016F5E7F4FAE01475F5F4FC1
:101420000E9461080E94C40D462F572F682F792F04
:10143000CB01BA01A096E2E00C948611A0E2B0E0E4
:10144000E4E2FAE00C945C11DC01CB018D839E8315
:10145000AF83B88729833A834B835C83CE0105969B
:10146000BE01675E7F4F0E949B0ECE010196BE01BA
:101470006F5E7F4F0E949B0E998D923078F0898924
:101480008230C0F0943019F4823041F4CAC0843004
:1014900019F4923079F4C5C0923051F481E02A8D6C
:1014A0009A89291709F480E08A8FCE014996BBC03A
:1014B000823051F481E02A8D9A89291709F480E05D
:1014C0008A8BCE014196AFC04D8C5E8C6F8C78A01C
:1014D0000D891E892F89388DE0E2F0E040E050E070
:1014E000BA01882499245401CC24DD247601C20158
:1014F000817090700097D1F0C00ED11EE21EF31ED5
:10150000DB01CA01880D991DAA1DBB1D41E050E0F9
:1015100060E070E0C016D106E206F30618F040E085
:1015200050E0BA01480F591F6A1F7B1F880C991C95
:10153000AA1CBB1C37FF08C081E090E0A0E0B0E02F
:10154000882A992AAA2ABB2A000F111F221F331F9B
:101550007694679457944794319749F68B8D9C8D78
:101560002B893C89820F931F02969C878B8781E091
:101570002A8D9A89291709F480E08A872B853C8572
:1015800017C0CA0181709070009761F0F694E794DB
:10159000D794C79480E090E0A0E0B0E8C82AD92AA8
:1015A000EA2AFB2A76956795579547952F5F3F4F17
:1015B00077FDE7CFC9010BC0440F551F661F771F8A
:1015C000F7FC4160CC0CDD1CEE1CFF1C0197403089
:1015D000A0E05A07A0E06A07A0E47A0768F38B87C7
:1015E0009C87DB01CA018F779070A070B070803447
:1015F0009105A105B10561F447FD0AC0C114D104EC
:10160000E104F10429F0405C5F4F6F4F7F4F407859
:101610004D875E876F87788B83E08987CE01099637
:1016200002C08BEA92E00E94C40D462F572F682F0C
:10163000792FCB01BA01A096E0E10C947811A8E1D2
:10164000B0E0E5E2FBE00C946411DC01CB018D839A
:101650009E83AF83B88729833A834B835C83CE0113
:101660000596BE016F5E7F4F0E949B0ECE010196D4
:10167000BE01675F7F4F0E949B0E9989923008F4EC
:1016800075C08985823008F474C02A893A85232779
:101690002A8B943011F0923021F4981709F066C02B
:1016A0006BC0843039F41D8A1E8A1F8A188E1C8AEA
:1016B0001B8A5CC0823019F484E0898B57C02B8967
:1016C0003C898B859C85281B390B3C8B2B8B8D890A
:1016D0009E89AF89B88DCD84DE84EF84F8888C151F
:1016E0009D05AE05BF0540F4880F991FAA1FBB1FBB
:1016F000215030403C8B2B8BEFE1F0E000E010E01C
:1017000020E030E440E050E0BA018C159D05AE05C4
:10171000BF0540F0402B512B622B732B8C199D0978
:10172000AE09BF093695279517950795880F991F1C
:10173000AA1FBB1F319749F78A019B010F771070D1
:1017400020703070003411052105310559F447FD32
:1017500009C00097A105B10529F0405C5F4F6F4FAC
:101760007F4F40784D8B5E8B6F8B788FCE0141968B
:1017700005C0CE01099602C08BEA92E00E94C40D1A
:10178000462F572F682F792FCB01BA016896E8E0D2
:101790000C948011A8E1B0E0E0EDFBE00C946A113C
:1017A000DC01CB018D839E83AF83B88729833A8385
:1017B0004B835C83CE010596BE016F5E7F4F0E9416
:1017C0009B0ECE010196BE01675F7F4F0E949B0E6C
:1017D0008989823058F08985823040F0CE01419667
:1017E000BE01675F7F4F0E94040F01C08FEF6896B4
:1017F000E2E00C948611A8E1B0E0E1E0FCE00C949A
:101800006A11DC01CB018D839E83AF83B887298366
:101810003A834B835C83CE010596BE016F5E7F4F9A
:101820000E949B0ECE010196BE01675F7F4F0E9412
:101830009B0E8989823058F08985823040F0CE0134
:101840004196BE01675F7F4F0E94040F01C081E097
:101850006896E2E00C948611CF92DF92EF92FF92AD
:10186000CF93DF93CDB7DEB728970FB6F894DEBFDE
:101870000FBECDBF6B017C0183E08983D701C60118
:101880008827B7FD83959927AA27BB27282F8A8306
:10189000C114D104E104F10419F482E0898335C054
:1018A0008EE190E09C838B83222389F080E0C81630
:1018B00080E0D80680E0E80680E8F80659F1F09468
:1018C000E094D094C094C11CD11CE11CF11CCD82C9
:1018D000DE82EF82F886C701B6010E94710D019782
:1018E0001816190694F4082E04C0CC0CDD1CEE1C4E
:1018F000FF1C0A94D2F7CD82DE82EF82F8862EE1B9
:1019000030E0281B390B3C832B83CE0101960E94CB
:10191000C40D04C060E070E080E09FEC382F292FF8
:10192000862F972FA32FB22FBC01CD0128960FB67B
:10193000F894DEBF0FBECDBFDF91CF91FF90EF9047
:10194000DF90CF900895ACE0B0E0E9EAFCE00C94C1
:101950006811DC01CB0189839A83AB83BC83CE0100
:101960000196BE016B5F7F4F0E949B0E8D8182307E
:1019700069F1823058F1843039F02F81388537FD94
:1019800025C02F31310544F08E81882319F100E004
:1019900010E020E030E822C08EE190E0821B930B43
:1019A00009851A852B853C8504C0369527951795A2
:1019B00007958A95D2F78E81882381F030952095FE
:1019C000109501951F4F2F4F3F4F08C000E010E0CA
:1019D000980104C00FEF1FEF2FEF3FE7B801C901D7
:1019E0002C96E4E00C948411A8E0B0E0EAEFFCE06F
:1019F0000C9464116B017C011A82611571058105DB
:101A0000910519F482E089835EC083E089830EE149
:101A100010E01C830B83CD82DE82EF82F886C70143
:101A2000B6010E94710D9C012150304037FF38C033
:101A3000EE27FF27E21BF30B81E090E0A0E0B0E08F
:101A40000E2E04C0880F991FAA1FBB1F0A94D2F73D
:101A50000197A109B1098C219D21AE21BF2141E04F
:101A600050E060E070E00097A105B10519F440E096
:101A700050E0BA0104C0F694E794D794C794EA956D
:101A8000D2F7C42AD52AE62AF72ACD82DE82EF824F
:101A9000F8868EE190E0821B930B9C838B8313C0AE
:101AA0002115310581F0022E04C0CC0CDD1CEE1C8A
:101AB000FF1C0A94D2F7CD82DE82EF82F886021BE9
:101AC000130B1C830B83CE0101960E94C40D462F7D
:101AD000572F682F792FCB01BA012896E8E00C9494
:101AE0008011CF92DF92EF92FF920F931F938B01A1
:101AF0009C01003080E0180781E0280780E038076B
:101B000050F40F3F11052105310509F088F480E0FC
:101B100090E0DC0116C00030E0E01E07E0E02E0798
:101B2000E1E03E0750F480E190E0A0E0B0E009C0C1
:101B300088E090E0A0E0B0E004C088E190E0A0E0A0
:101B4000B0E040E250E060E070E0481B590B6A0BE7
:101B50007B0B6801790104C0F694E794D794C7948D
:101B60008A95D2F7D701C6018D549D4FFC01808123
:101B7000481B510961097109CA011F910F91FF901A
:101B8000EF90DF90CF900895CF92DF92EF92FF9287
:101B90000F931F93DC0114964D915D916D917C9193
:101BA00017971196EC9111978C91823020F4606117
:101BB0008FEF90E0A5C0843009F49DC0823009F415
:101BC00094C0411551056105710509F491C0129643
:101BD0008D919C9113972FEF823892070CF059C08A
:101BE00022E83FEF281B390B2A31310564F56A01E1
:101BF0007B01022E04C0F694E794D794C7940A940C
:101C0000D2F781E090E0A0E0B0E004C0880F991F17
:101C1000AA1FBB1F2A95D2F70197A109B1098423F6
:101C20009523A623B72341E050E060E070E00097E1
:101C3000A105B10519F440E050E0BA014C295D2935
:101C40006E297F2903C040E050E0BA01DB01CA01E0
:101C50008F779070A070B07080349105A105B105A8
:101C600039F447FF09C0405C5F4F6F4F7F4F04C09E
:101C7000415C5F4F6F4F7F4F81E090E0403020E04C
:101C8000520720E0620720E4720738F580E090E018
:101C900024C0803891057CF58A019B010F77107074
:101CA00020703070003411052105310539F447FFEB
:101CB00009C0405C5F4F6F4F7F4F04C0415C5F4F76
:101CC0006F4F7F4F77FD03C081589F4F06C07695B9
:101CD00067955795479580589F4F97E076956795FC
:101CE000579547959A95D1F70BC080E090E005C0D5
:101CF00080E090E005C08FEF90E040E050E0BA0156
:101D0000982F979599279795A62FAF77E795EE2768
:101D1000E79586953A2F392B282F2E2B842F952F38
:101D2000A32FB22FBC01CD011F910F91FF90EF9017
:101D3000DF90CF900895DC01FB014C9111965C91EE
:101D4000119712968C911297682F6F7770E0982FE9
:101D5000991F9927991F13962C911397822F880FFB
:101D6000892B90E0221F2227221F2183009739F51B
:101D7000411551056105710511F482E029C082E821
:101D80009FEF9383828327E0440F551F661F771FC1
:101D90002A95D1F783E0808309C0440F551F661F41
:101DA000771F82819381019793838283403080E003
:101DB000580780E0680780E4780778F320C08F3FF9
:101DC000910579F4411551056105710519F484E017
:101DD0008083089564FF03C081E0808310C0108277
:101DE0000EC08F5790409383828383E0808387E087
:101DF000440F551F661F771F8A95D1F7706444837F
:101E00005583668377830895CF93FC01DB0190812E
:101E1000923008F44CC08C91823008F448C0943061
:101E200069F42181843039F411968C91119790E0F6
:101E3000821B910944C02223D1F13FC0843021F09C
:101E4000923041F48230B1F111968C911197882330
:101E5000A1F12DC0C181823001F111968C911197B1
:101E6000C817D9F48281938112962D913C911397D2
:101E70002817390794F082179307BCF044815581E5
:101E80006681778114968D919D910D90BC91A02DC6
:101E900084179507A607B70718F4CC2341F00DC0A7
:101EA000481759076A077B0728F4CC2331F081E0F3
:101EB00090E005C080E090E002C08FEF9FEFCF91EF
:101EC00008950E94E2000E94E9000E94F3000E942F
:101ED000D5000E94B5018091150290911602909351
:101EE00059048093580480911302909114029093A6
:101EF00057048093560482E00E94F40181E042E09E
:101F000050E060E070E021E008E0EFEFCE2EEFEF70
:101F1000DE2EEFEFEE2EEFE1FE2EF5E0AF2E0E946B
:101F200090040E94E205ABE2EA2EA1E0FA2EBAE3A9
:101F3000CB2EB1E0DB2ECCE5AC2EC1E0BC2EDEE733
:101F40008D2ED1E09D2E16ED612E13E0712E0BEB40
:101F5000402E01E0502E89EC282E81E0382ECBEF68
:101F6000D1E006EE11E08091BE039091BD03891788
:101F7000E9F0882319F084E191E002C087E191E063
:101F800000D000D0ADB7BEB71296FC92EE9211977A
:101F900014969C938E9313970E9491118091BE0387
:101FA0008093BD030F900F900F900F908091BA0314
:101FB0009091B9038917C1F0882319F0813081F419
:101FC00007C0D092C003C092BF038BE491E006C06B
:101FD000B092C003A092BF038DE691E00E94A311CE
:101FE0008091BA038093B9038091B803882351F09C
:101FF0009092C0038092BF038AE891E00E94A311EF
:102000001092B8038091BE03882361F460E04DEA2A
:1020100051E00E944F0181E060E043E051E00E9406
:10202000210162C000D000D000D0EDB7FEB73196DC
:10203000ADB7BEB712967C926E92119753824282D0
:102040008091B6039091B703958384830E94D11148
:10205000EDB7FEB736960FB6F894FEBF0FBEEDBFD4
:1020600080E060E046ED53E00E944F018091BA03AA
:10207000882319F48BE191E002C083E291E000D063
:1020800000D000D0EDB7FEB7319626ED33E0ADB706
:10209000BEB712963C932E9311973382228295837A
:1020A00084830E94D111EDB7FEB736960FB6F8942F
:1020B000FEBF0FBEEDBF81E060E046ED53E00E9441
:1020C0004F014091BF035091C0034115510561F08C
:1020D00081E060E00E944F018CE291E00E94C0002C
:1020E0001092C0031092BF038091BC039091BB0378
:1020F000891749F0813011F42F9801C02F9A8091EF
:10210000BC038093BB038091BE03882389F480E0E5
:1021100090E00E944F0680E090E00E94040610923A
:10212000B5031092B4031092B7031092B603A9C07E
:1021300084EB90E00E944F064091BA038091B60371
:102140009091B7032091B4033091B503442309F073
:1021500046C01216130614F58931910584F40196D0
:102160009093B7038093B60300D000D021ED31E007
:10217000ADB7BEB712963C932E93119722C000D0F4
:1021800000D0EDB7FEB712830183948383830E944E
:1021900091110F900F900F900F901CC021153105D9
:1021A000C9F01816190694F401979093B703809319
:1021B000B60300D000D0ADB7BEB71296DC93CE9375
:1021C000119714969C938E931397E1CF8BE092E036
:1021D0000E94A3118091B6039091B7034CC01216D0
:1021E00013063CF58A30910574F401969093B70379
:1021F0008093B60300D000D021ED31E0EDB7FEB7FB
:102200003283218327C000D000D0ADB7BEB712966D
:102210001C930E931197909581959F4F14969C93C4
:102220008E9313970E9491110F900F900F900F9023
:102230001BC021153105C1F0181619068CF4019741
:102240009093B7038093B60300D000D0EDB7FEB7EC
:10225000D283C183909581959F4F94838383E2CFEE
:102260008BE092E00E94A3118091B6039091B70396
:10227000909581959F4F0E9404061092B50310928D
:10228000B40388E290E00E94C0006DCEAA1BBB1B85
:1022900051E107C0AA1FBB1FA617B70710F0A61B66
:1022A000B70B881F991F5A95A9F780959095BC0187
:1022B000CD0108952F923F924F925F926F927F923D
:1022C0008F929F92AF92BF92CF92DF92EF92FF9246
:1022D0000F931F93CF93DF93CDB7DEB7CA1BDB0BF2
:1022E0000FB6F894DEBF0FBECDBF09942A88398897
:1022F00048885F846E847D848C849B84AA84B9849E
:10230000C884DF80EE80FD800C811B81AA81B981A9
:10231000CE0FD11D0FB6F894DEBF0FBECDBFED01BD
:102320000895CF93DF93CDB7DEB7FE013596619167
:1023300071918091580490915904AF010E9400124C
:10234000DF91CF9108950F931F93CF93DF938C016B
:10235000E0915804F0915904838181FF1AC0C0E0D4
:10236000D0E005C00995009711F0CFEFDFEFF8013D
:1023700081918F016091580470915904DB01189686
:10238000ED91FC911997882369F78AE009950097E8
:1023900011F0CFEFDFEFCE01DF91CF911F910F91C1
:1023A00008950F931F93CF93DF93CDB7DEB72E978A
:1023B0000FB6F894DEBF0FBECDBF0D891E8986E033
:1023C0008C831A8309838FEF9FE79E838D83AE01F1
:1023D000475E5F4FCE0101966F89788D0E94001293
:1023E000EF81F885E00FF11F10822E960FB6F8945A
:1023F000DEBF0FBECDBFDF91CF911F910F9108952A
:102400002F923F924F925F926F927F928F929F9204
:10241000AF92BF92CF92DF92EF92FF920F931F93F2
:10242000CF93DF93CDB7DEB72D970FB6F894DEBF0D
:102430000FBECDBF3C017D876C875A01FC0117821E
:102440001682838181FFC8C12E010894411C511C52
:10245000F3019381EC85FD8593FD859193FF819137
:10246000FD87EC87882309F4B3C1853241F493FDDD
:10247000859193FF8191FD87EC87853229F490E067
:10248000B3010E941D14E4CFFF24EE2410E01032AB
:10249000B0F48B3269F08C3228F4803251F0833200
:1024A00071F40BC08D3239F0803349F411602CC0C7
:1024B0001260146029C0186027C0106125C017FD84
:1024C0002EC0282F20532A3098F416FF08C08F2DD5
:1024D000880FF82EFF0CFF0CF80EF20E15C08E2D93
:1024E000880FE82EEE0CEE0CE80EE20E10620CC027
:1024F0008E3221F416FD6CC1106406C08C3611F4C6
:10250000106802C0883659F4EC85FD8593FD8591ED
:1025100093FF8191FD87EC87882309F0B8CF982F2E
:102520009554933018F09052933038F424E030E012
:10253000A20EB31E3FE339830FC0833631F08337D9
:1025400081F0833509F05AC022C0F501808189836A
:1025500022E030E0A20EB31E21E0C22ED12C4201B7
:1025600014C092E0292E312C2A0C3B1CF5018080EE
:10257000918016FF03C06F2D70E002C06FEF7FEFF8
:10258000C4010E9412146C0151011F7715C082E032
:10259000282E312C2A0C3B1CF5018080918016FFDF
:1025A00003C06F2D70E002C06FEF7FEFC4010E9487
:1025B00007146C011068510113FD1CC006C080E2B5
:1025C00090E0B3010E941D14EA948E2D90E0C8168D
:1025D000D906A8F30FC0F40117FD859117FF81916B
:1025E0004F0190E0B3010E941D14E110EA94089499
:1025F000C108D108C114D10471F7E7C0843611F0C5
:10260000893651F5F50117FF07C080819181A281BC
:10261000B38124E030E008C080819181AA2797FD32
:10262000A095BA2F22E030E0A20EB31E012F0F7644
:10263000B7FF08C0B095A095909581959F4FAF4F7B
:10264000BF4F0068BC01CD01A2012AE030E00E942A
:102650004914D82ED4183FC0853721F41F7E2AE0B4
:1026600030E020C0197F8F36A9F0803720F48835FC
:1026700009F0AEC00BC0803721F0883709F0A8C040
:1026800001C0106114FF09C0146007C014FF08C026
:10269000166006C028E030E005C020E130E002C04E
:1026A00020E132E0F50117FF07C06081718182816E
:1026B000938144E050E006C06081718180E090E049
:1026C00042E050E0A40EB51EA2010E944914D82E8B
:1026D000D418012F0F7706FF09C00E7FDF1430F4E6
:1026E00004FF06C002FD04C00F7E02C01D2D01C004
:1026F0001F2D802F90E004FF0CC0FE01ED0DF11D99
:102700002081203311F4097E09C002FF06C01E5F3C
:1027100005C086789070009709F01F5F802E99247D
:1027200003FD12C000FF0DC0FD2C1E1550F4FE0C61
:10273000F11A1E2D06C080E290E0B3010E941D1424
:102740001F5F1E15C0F304C01E1510F4E11A01C06E
:10275000EE2484FE0FC080E390E0B3010E941D14BC
:1027600082FE1FC081FE03C088E590E010C088E7AC
:1027700090E00DC0C40186789070009791F081FCC4
:1027800002C080E201C08BE207FD8DE290E0B30160
:102790000E941D1406C080E390E0B3010E941D1446
:1027A000FA94DF14C0F3DA94F201ED0DF11D80818B
:1027B00090E0B3010E941D14DD20A9F706C080E25D
:1027C00090E0B3010E941D14EA94EE20C1F740CEC0
:1027D000F3018681978102C08FEF9FEF2D960FB690
:1027E000F894DEBF0FBECDBFDF91CF911F910F9147
:1027F000FF90EF90DF90CF90BF90AF909F908F9021
:102800007F906F905F904F903F902F900895FC01C4
:102810000590615070400110D8F7809590958E0F0B
:102820009F1F0895FC016150704001900110D8F77E
:10283000809590958E0F9F1F08950F931F93CF93B0
:10284000DF938C01EB018B8181FF1BC082FF0DC0E8
:102850002E813F818C819D812817390764F4E8819E
:10286000F9810193F983E88306C0E885F985802F13
:102870000995009731F48E819F8101969F838E8305
:1028800002C00FEF1FEFC801DF91CF911F910F9191
:102890000895FA01AA27283051F1203181F1E894F6
:1028A0006F936E7F6E5F7F4F8F4F9F4FAF4FB1E043
:1028B0003ED0B4E03CD0670F781F891F9A1FA11D3E
:1028C000680F791F8A1F911DA11D6A0F711D811D3F
:1028D000911DA11D20D009F468943F912AE0269F04
:1028E00011243019305D3193DEF6CF010895462F63
:1028F0004770405D4193B3E00FD0C9F7F6CF462F44
:102900004F70405D4A3318F0495D31FD40524193AC
:1029100002D0A9F7EACFB4E0A69597958795779569
:102920006795BA95C9F700976105710508959B01F0
:10293000AC010A2E06945795479537952795BA9579
:10294000C9F7620F731F841F951FA01D0895F89487
:02295000FFCFB7
:10295200256400202020202020202020202020204C
:10296200202020006F6E006F666600464F5257416E
:1029720052440052455645525345007365742065D2
:102982006E67696E652025730A00534554204745DA
:10299200415220464F52574152440073657420679A
:1029A20065617220666F72776172640053455420CC
:1029B200474541522052455645525345007365746E
:1029C20020676561722072657665727365004E4F8D
:1029D2005420494E2052455354006661696C656427
:1029E20020746F206368616E676520676561723A63
:1029F200206E6F7420696E207265737400454E47B5
:102A0200494E45204953204F4646005350454544C0
:102A12003A2532646B6D2F6800474541523A25735F
:102A220000616363656C6572617465643A20256454
:102A32006B6D2F680A007370656564206C696D693F
:102A4200743A2025646B6D2F680A006272616B65AF
:102A5200643A2025646B6D2F680A0073746F70707E
:102A62006564008F029D02303030303030303030BB
:102A720000303030303030303020003030303030C4
:102A820030302020003030303030302020200030F4
:102A920030303030202020200030303030202020D4
:102AA2002020003030302020202020200030302014
:102AB2002020202020200030202020202020202024
:102AC2000020202020202020202000170221022B7D
:102AD2000235023F02490253025D0267027102009F
:102AE200000001000000000000E4010000000000FE
:102AF2000200000000CF0100000000000000000002
:102B0200000000000102020303030304040404049E
:102B12000404040505050505050505050505050566
:102B22000505050606060606060606060606060646
:102B32000606060606060606060606060606060633
:102B42000606060707070707070707070707070716
:102B52000707070707070707070707070707070703
:102B620007070707070707070707070707070707F3
:102B720007070707070707070707070707070707E3
:102B820007070708080808080808080808080808C6
:102B920008080808080808080808080808080808B3
:102BA20008080808080808080808080808080808A3
:102BB2000808080808080808080808080808080893
:102BC2000808080808080808080808080808080883
:102BD2000808080808080808080808080808080873
:102BE2000808080808080808080808080808080863
:102BF2000808080808080808080808080808080853
:042C020008080800B6
:00000001FF
